{"abi":[{"type":"constructor","inputs":[{"name":"defaultAdmin","type":"address","internalType":"address"}],"stateMutability":"nonpayable"},{"type":"function","name":"DEFAULT_ADMIN_ROLE","inputs":[],"outputs":[{"name":"","type":"bytes32","internalType":"bytes32"}],"stateMutability":"view"},{"type":"function","name":"getRoleAdmin","inputs":[{"name":"role","type":"bytes32","internalType":"bytes32"}],"outputs":[{"name":"","type":"bytes32","internalType":"bytes32"}],"stateMutability":"view"},{"type":"function","name":"getStrategy","inputs":[{"name":"strategyId","type":"bytes32","internalType":"bytes32"}],"outputs":[{"name":"","type":"tuple","internalType":"struct KdexitTypes.StrategyConfig","components":[{"name":"target","type":"address","internalType":"address"},{"name":"enabled","type":"bool","internalType":"bool"},{"name":"metadata","type":"bytes","internalType":"bytes"}]}],"stateMutability":"view"},{"type":"function","name":"grantRole","inputs":[{"name":"role","type":"bytes32","internalType":"bytes32"},{"name":"account","type":"address","internalType":"address"}],"outputs":[],"stateMutability":"nonpayable"},{"type":"function","name":"hasRole","inputs":[{"name":"role","type":"bytes32","internalType":"bytes32"},{"name":"account","type":"address","internalType":"address"}],"outputs":[{"name":"","type":"bool","internalType":"bool"}],"stateMutability":"view"},{"type":"function","name":"isStrategyEnabled","inputs":[{"name":"strategyId","type":"bytes32","internalType":"bytes32"}],"outputs":[{"name":"","type":"bool","internalType":"bool"}],"stateMutability":"view"},{"type":"function","name":"renounceRole","inputs":[{"name":"role","type":"bytes32","internalType":"bytes32"},{"name":"callerConfirmation","type":"address","internalType":"address"}],"outputs":[],"stateMutability":"nonpayable"},{"type":"function","name":"revokeRole","inputs":[{"name":"role","type":"bytes32","internalType":"bytes32"},{"name":"account","type":"address","internalType":"address"}],"outputs":[],"stateMutability":"nonpayable"},{"type":"function","name":"setStrategy","inputs":[{"name":"strategyId","type":"bytes32","internalType":"bytes32"},{"name":"config","type":"tuple","internalType":"struct KdexitTypes.StrategyConfig","components":[{"name":"target","type":"address","internalType":"address"},{"name":"enabled","type":"bool","internalType":"bool"},{"name":"metadata","type":"bytes","internalType":"bytes"}]}],"outputs":[],"stateMutability":"nonpayable"},{"type":"function","name":"supportsInterface","inputs":[{"name":"interfaceId","type":"bytes4","internalType":"bytes4"}],"outputs":[{"name":"","type":"bool","internalType":"bool"}],"stateMutability":"view"},{"type":"event","name":"RoleAdminChanged","inputs":[{"name":"role","type":"bytes32","indexed":true,"internalType":"bytes32"},{"name":"previousAdminRole","type":"bytes32","indexed":true,"internalType":"bytes32"},{"name":"newAdminRole","type":"bytes32","indexed":true,"internalType":"bytes32"}],"anonymous":false},{"type":"event","name":"RoleGranted","inputs":[{"name":"role","type":"bytes32","indexed":true,"internalType":"bytes32"},{"name":"account","type":"address","indexed":true,"internalType":"address"},{"name":"sender","type":"address","indexed":true,"internalType":"address"}],"anonymous":false},{"type":"event","name":"RoleRevoked","inputs":[{"name":"role","type":"bytes32","indexed":true,"internalType":"bytes32"},{"name":"account","type":"address","indexed":true,"internalType":"address"},{"name":"sender","type":"address","indexed":true,"internalType":"address"}],"anonymous":false},{"type":"event","name":"StrategyAuthorizationRegistered","inputs":[{"name":"strategyId","type":"bytes32","indexed":true,"internalType":"bytes32"},{"name":"target","type":"address","indexed":true,"internalType":"address"},{"name":"actor","type":"address","indexed":true,"internalType":"address"},{"name":"enabled","type":"bool","indexed":false,"internalType":"bool"},{"name":"metadataHash","type":"bytes32","indexed":false,"internalType":"bytes32"},{"name":"configuredAt","type":"uint64","indexed":false,"internalType":"uint64"}],"anonymous":false},{"type":"error","name":"AccessControlBadConfirmation","inputs":[]},{"type":"error","name":"AccessControlUnauthorizedAccount","inputs":[{"name":"account","type":"address","internalType":"address"},{"name":"neededRole","type":"bytes32","internalType":"bytes32"}]},{"type":"error","name":"AdminAddressZero","inputs":[]}],"bytecode":{"object":"0x608060405234801561000f575f80fd5b50604051610b21380380610b2183398101604081905261002e9161013a565b6001600160a01b038116610055576040516339bfddb560e01b815260040160405180910390fd5b61005f5f82610091565b5061008a7fa49807205ce4d355092ef5a8a18f56e8913cf4a201fbe287825b095693c2177582610091565b5050610167565b5f828152602081815260408083206001600160a01b038516845290915281205460ff16610131575f838152602081815260408083206001600160a01b03861684529091529020805460ff191660011790556100e93390565b6001600160a01b0316826001600160a01b0316847f2f8788117e7eff1d82e926ec794901d17c78024a50270940304540a733656f0d60405160405180910390a4506001610134565b505f5b92915050565b5f6020828403121561014a575f80fd5b81516001600160a01b0381168114610160575f80fd5b9392505050565b6109ad806101745f395ff3fe608060405234801561000f575f80fd5b506004361061009b575f3560e01c80632f2ff15d116100635780632f2ff15d1461015557806336568abe1461016857806391d148541461017b578063a217fddf1461018e578063d547741f14610195575f80fd5b806301ffc9a71461009f57806310d075d8146100c7578063202f0345146100f0578063248a9ca31461010557806328c84bbd14610135575b5f80fd5b6100b26100ad3660046105aa565b6101a8565b60405190151581526020015b60405180910390f35b6100b26100d53660046105d8565b5f90815260016020526040902054600160a01b900460ff1690565b6101036100fe3660046105ef565b6101de565b005b6101276101133660046105d8565b5f9081526020819052604090206001015490565b6040519081526020016100be565b6101486101433660046105d8565b6102c7565b6040516100be9190610639565b6101036101633660046106c0565b6103b6565b6101036101763660046106c0565b6103e0565b6100b26101893660046106c0565b610418565b6101275f81565b6101036101a33660046106c0565b610440565b5f6001600160e01b03198216637965db0b60e01b14806101d857506301ffc9a760e01b6001600160e01b03198316145b92915050565b7fa49807205ce4d355092ef5a8a18f56e8913cf4a201fbe287825b095693c2177561020881610464565b5f8381526001602052604090208290610221828261088b565b503390506102326020840184610932565b6001600160a01b0316847f7099d9e1011610348797e3e26b76bf485c6a97c69a3e440a280d8a66a4520e2761026d604087016020880161094d565b61027a60408801886106f0565b604051610288929190610968565b6040519081900381206102ba929142909215158352602083019190915267ffffffffffffffff16604082015260600190565b60405180910390a4505050565b60408051606080820183525f8083526020830152918101919091525f82815260016020818152604092839020835160608101855281546001600160a01b0381168252600160a01b900460ff161515928101929092529182018054919384019161032f9061074e565b80601f016020809104026020016040519081016040528092919081815260200182805461035b9061074e565b80156103a65780601f1061037d576101008083540402835291602001916103a6565b820191905f5260205f20905b81548152906001019060200180831161038957829003601f168201915b5050505050815250509050919050565b5f828152602081905260409020600101546103d081610464565b6103da8383610471565b50505050565b6001600160a01b03811633146104095760405163334bd91960e11b815260040160405180910390fd5b6104138282610500565b505050565b5f918252602082815260408084206001600160a01b0393909316845291905290205460ff1690565b5f8281526020819052604090206001015461045a81610464565b6103da8383610500565b61046e8133610569565b50565b5f61047c8383610418565b6104f9575f838152602081815260408083206001600160a01b03861684529091529020805460ff191660011790556104b13390565b6001600160a01b0316826001600160a01b0316847f2f8788117e7eff1d82e926ec794901d17c78024a50270940304540a733656f0d60405160405180910390a45060016101d8565b505f6101d8565b5f61050b8383610418565b156104f9575f838152602081815260408083206001600160a01b0386168085529252808320805460ff1916905551339286917ff6391f5c32d9c69d2a47ea670b442974b53935d1edc7fd64eb21e047a839171b9190a45060016101d8565b6105738282610418565b6105a65760405163e2517d3f60e01b81526001600160a01b03821660048201526024810183905260440160405180910390fd5b5050565b5f602082840312156105ba575f80fd5b81356001600160e01b0319811681146105d1575f80fd5b9392505050565b5f602082840312156105e8575f80fd5b5035919050565b5f8060408385031215610600575f80fd5b82359150602083013567ffffffffffffffff81111561061d575f80fd5b83016060818603121561062e575f80fd5b809150509250929050565b5f602080835260018060a01b038451166020840152602084015115156040840152604084015160608085015280518060808601525f5b8181101561068b5782810184015186820160a00152830161066f565b505f60a0828701015260a0601f19601f830116860101935050505092915050565b6001600160a01b038116811461046e575f80fd5b5f80604083850312156106d1575f80fd5b82359150602083013561062e816106ac565b801515811461046e575f80fd5b5f808335601e19843603018112610705575f80fd5b83018035915067ffffffffffffffff82111561071f575f80fd5b602001915036819003821315610733575f80fd5b9250929050565b634e487b7160e01b5f52604160045260245ffd5b600181811c9082168061076257607f821691505b60208210810361078057634e487b7160e01b5f52602260045260245ffd5b50919050565b601f82111561041357805f5260205f20601f840160051c810160208510156107ab5750805b601f840160051c820191505b818110156107ca575f81556001016107b7565b5050505050565b67ffffffffffffffff8311156107e9576107e961073a565b6107fd836107f7835461074e565b83610786565b5f601f84116001811461082e575f85156108175750838201355b5f19600387901b1c1916600186901b1783556107ca565b5f83815260208120601f198716915b8281101561085d578685013582556020948501946001909201910161083d565b5086821015610879575f1960f88860031b161c19848701351681555b505060018560011b0183555050505050565b8135610896816106ac565b81546001600160a01b031981166001600160a01b0392909216918217835560208401356108c2816106e3565b6001600160a81b03199190911690911790151560a01b60ff60a01b16178155604082013536839003601e190181126108f8575f80fd5b8201803567ffffffffffffffff811115610910575f80fd5b602082019150803603821315610924575f80fd5b6103da8183600186016107d1565b5f60208284031215610942575f80fd5b81356105d1816106ac565b5f6020828403121561095d575f80fd5b81356105d1816106e3565b818382375f910190815291905056fea26469706673582212208225febe91a8581a9a321f2ba9ebc8b8c11c28806663b9af98a276d18a761cd064736f6c63430008180033","linkReferences":{}},"methodIdentifiers":{"DEFAULT_ADMIN_ROLE()":"a217fddf","getRoleAdmin(bytes32)":"248a9ca3","getStrategy(bytes32)":"28c84bbd","grantRole(bytes32,address)":"2f2ff15d","hasRole(bytes32,address)":"91d14854","isStrategyEnabled(bytes32)":"10d075d8","renounceRole(bytes32,address)":"36568abe","revokeRole(bytes32,address)":"d547741f","setStrategy(bytes32,(address,bool,bytes))":"202f0345","supportsInterface(bytes4)":"01ffc9a7"},"id":7}