{"abi":[{"type":"constructor","inputs":[{"name":"defaultAdmin","type":"address","internalType":"address"},{"name":"emergencyPauser","type":"address","internalType":"address"},{"name":"strategyRegistry_","type":"address","internalType":"address"}],"stateMutability":"nonpayable"},{"type":"function","name":"DEFAULT_ADMIN_ROLE","inputs":[],"outputs":[{"name":"","type":"bytes32","internalType":"bytes32"}],"stateMutability":"view"},{"type":"function","name":"STRATEGY_REGISTRY","inputs":[],"outputs":[{"name":"","type":"address","internalType":"contract IKdexitStrategyRegistry"}],"stateMutability":"view"},{"type":"function","name":"canSubmitExecutionRequests","inputs":[],"outputs":[{"name":"","type":"bool","internalType":"bool"}],"stateMutability":"view"},{"type":"function","name":"getExecutionReceipt","inputs":[{"name":"executionId","type":"bytes32","internalType":"bytes32"}],"outputs":[{"name":"","type":"tuple","internalType":"struct KdexitTypes.ExecutionReceipt","components":[{"name":"executionId","type":"bytes32","internalType":"bytes32"},{"name":"account","type":"address","internalType":"address"},{"name":"strategyId","type":"bytes32","internalType":"bytes32"},{"name":"amountIn","type":"uint256","internalType":"uint256"},{"name":"payloadHash","type":"bytes32","internalType":"bytes32"},{"name":"requestedAt","type":"uint64","internalType":"uint64"},{"name":"submittedBy","type":"address","internalType":"address"},{"name":"submittedAt","type":"uint64","internalType":"uint64"},{"name":"finalizedBy","type":"address","internalType":"address"},{"name":"finalizedAt","type":"uint64","internalType":"uint64"},{"name":"resultHash","type":"bytes32","internalType":"bytes32"},{"name":"failureCode","type":"bytes32","internalType":"bytes32"},{"name":"failureContextHash","type":"bytes32","internalType":"bytes32"},{"name":"status","type":"uint8","internalType":"enum KdexitTypes.ExecutionRequestStatus"}]}],"stateMutability":"view"},{"type":"function","name":"getRoleAdmin","inputs":[{"name":"role","type":"bytes32","internalType":"bytes32"}],"outputs":[{"name":"","type":"bytes32","internalType":"bytes32"}],"stateMutability":"view"},{"type":"function","name":"grantRole","inputs":[{"name":"role","type":"bytes32","internalType":"bytes32"},{"name":"account","type":"address","internalType":"address"}],"outputs":[],"stateMutability":"nonpayable"},{"type":"function","name":"hasRole","inputs":[{"name":"role","type":"bytes32","internalType":"bytes32"},{"name":"account","type":"address","internalType":"address"}],"outputs":[{"name":"","type":"bool","internalType":"bool"}],"stateMutability":"view"},{"type":"function","name":"isEmergencyPaused","inputs":[],"outputs":[{"name":"","type":"bool","internalType":"bool"}],"stateMutability":"view"},{"type":"function","name":"isExecutionSubmitted","inputs":[{"name":"executionId","type":"bytes32","internalType":"bytes32"}],"outputs":[{"name":"","type":"bool","internalType":"bool"}],"stateMutability":"view"},{"type":"function","name":"pause","inputs":[],"outputs":[],"stateMutability":"nonpayable"},{"type":"function","name":"paused","inputs":[],"outputs":[{"name":"","type":"bool","internalType":"bool"}],"stateMutability":"view"},{"type":"function","name":"recordExecutionCompletion","inputs":[{"name":"executionId","type":"bytes32","internalType":"bytes32"},{"name":"resultHash","type":"bytes32","internalType":"bytes32"}],"outputs":[],"stateMutability":"nonpayable"},{"type":"function","name":"recordExecutionFailure","inputs":[{"name":"executionId","type":"bytes32","internalType":"bytes32"},{"name":"failureCode","type":"bytes32","internalType":"bytes32"},{"name":"failureContextHash","type":"bytes32","internalType":"bytes32"}],"outputs":[],"stateMutability":"nonpayable"},{"type":"function","name":"renounceRole","inputs":[{"name":"role","type":"bytes32","internalType":"bytes32"},{"name":"callerConfirmation","type":"address","internalType":"address"}],"outputs":[],"stateMutability":"nonpayable"},{"type":"function","name":"revokeRole","inputs":[{"name":"role","type":"bytes32","internalType":"bytes32"},{"name":"account","type":"address","internalType":"address"}],"outputs":[],"stateMutability":"nonpayable"},{"type":"function","name":"submitExecutionRequest","inputs":[{"name":"request","type":"tuple","internalType":"struct KdexitTypes.ExecutionRequest","components":[{"name":"executionId","type":"bytes32","internalType":"bytes32"},{"name":"account","type":"address","internalType":"address"},{"name":"strategyId","type":"bytes32","internalType":"bytes32"},{"name":"amountIn","type":"uint256","internalType":"uint256"},{"name":"payloadHash","type":"bytes32","internalType":"bytes32"},{"name":"requestedAt","type":"uint64","internalType":"uint64"}]}],"outputs":[],"stateMutability":"nonpayable"},{"type":"function","name":"supportsInterface","inputs":[{"name":"interfaceId","type":"bytes4","internalType":"bytes4"}],"outputs":[{"name":"","type":"bool","internalType":"bool"}],"stateMutability":"view"},{"type":"function","name":"unpause","inputs":[],"outputs":[],"stateMutability":"nonpayable"},{"type":"event","name":"EmergencyPauseStateChanged","inputs":[{"name":"isPaused","type":"bool","indexed":true,"internalType":"bool"},{"name":"actor","type":"address","indexed":true,"internalType":"address"},{"name":"changedAt","type":"uint64","indexed":false,"internalType":"uint64"}],"anonymous":false},{"type":"event","name":"ExecutionCompleted","inputs":[{"name":"executionId","type":"bytes32","indexed":true,"internalType":"bytes32"},{"name":"strategyId","type":"bytes32","indexed":true,"internalType":"bytes32"},{"name":"account","type":"address","indexed":true,"internalType":"address"},{"name":"finalizer","type":"address","indexed":false,"internalType":"address"},{"name":"resultHash","type":"bytes32","indexed":false,"internalType":"bytes32"},{"name":"finalizedAt","type":"uint64","indexed":false,"internalType":"uint64"}],"anonymous":false},{"type":"event","name":"ExecutionFailed","inputs":[{"name":"executionId","type":"bytes32","indexed":true,"internalType":"bytes32"},{"name":"strategyId","type":"bytes32","indexed":true,"internalType":"bytes32"},{"name":"account","type":"address","indexed":true,"internalType":"address"},{"name":"finalizer","type":"address","indexed":false,"internalType":"address"},{"name":"failureCode","type":"bytes32","indexed":false,"internalType":"bytes32"},{"name":"failureContextHash","type":"bytes32","indexed":false,"internalType":"bytes32"},{"name":"finalizedAt","type":"uint64","indexed":false,"internalType":"uint64"}],"anonymous":false},{"type":"event","name":"ExecutionRequestSubmitted","inputs":[{"name":"executionId","type":"bytes32","indexed":true,"internalType":"bytes32"},{"name":"strategyId","type":"bytes32","indexed":true,"internalType":"bytes32"},{"name":"account","type":"address","indexed":true,"internalType":"address"},{"name":"submitter","type":"address","indexed":false,"internalType":"address"},{"name":"amountIn","type":"uint256","indexed":false,"internalType":"uint256"},{"name":"payloadHash","type":"bytes32","indexed":false,"internalType":"bytes32"},{"name":"requestedAt","type":"uint64","indexed":false,"internalType":"uint64"},{"name":"submittedAt","type":"uint64","indexed":false,"internalType":"uint64"}],"anonymous":false},{"type":"event","name":"Paused","inputs":[{"name":"account","type":"address","indexed":false,"internalType":"address"}],"anonymous":false},{"type":"event","name":"RoleAdminChanged","inputs":[{"name":"role","type":"bytes32","indexed":true,"internalType":"bytes32"},{"name":"previousAdminRole","type":"bytes32","indexed":true,"internalType":"bytes32"},{"name":"newAdminRole","type":"bytes32","indexed":true,"internalType":"bytes32"}],"anonymous":false},{"type":"event","name":"RoleGranted","inputs":[{"name":"role","type":"bytes32","indexed":true,"internalType":"bytes32"},{"name":"account","type":"address","indexed":true,"internalType":"address"},{"name":"sender","type":"address","indexed":true,"internalType":"address"}],"anonymous":false},{"type":"event","name":"RoleRevoked","inputs":[{"name":"role","type":"bytes32","indexed":true,"internalType":"bytes32"},{"name":"account","type":"address","indexed":true,"internalType":"address"},{"name":"sender","type":"address","indexed":true,"internalType":"address"}],"anonymous":false},{"type":"event","name":"Unpaused","inputs":[{"name":"account","type":"address","indexed":false,"internalType":"address"}],"anonymous":false},{"type":"error","name":"AccessControlBadConfirmation","inputs":[]},{"type":"error","name":"AccessControlUnauthorizedAccount","inputs":[{"name":"account","type":"address","internalType":"address"},{"name":"neededRole","type":"bytes32","internalType":"bytes32"}]},{"type":"error","name":"AccountAddressZero","inputs":[]},{"type":"error","name":"AdminAddressZero","inputs":[]},{"type":"error","name":"EnforcedPause","inputs":[]},{"type":"error","name":"ExecutionAlreadySubmitted","inputs":[{"name":"executionId","type":"bytes32","internalType":"bytes32"}]},{"type":"error","name":"ExecutionIdZero","inputs":[]},{"type":"error","name":"ExecutionNotPending","inputs":[{"name":"executionId","type":"bytes32","internalType":"bytes32"}]},{"type":"error","name":"ExecutionNotSubmitted","inputs":[{"name":"executionId","type":"bytes32","internalType":"bytes32"}]},{"type":"error","name":"ExpectedPause","inputs":[]},{"type":"error","name":"StrategyNotEnabled","inputs":[{"name":"strategyId","type":"bytes32","internalType":"bytes32"}]},{"type":"error","name":"StrategyRegistryAddressZero","inputs":[]}],"bytecode":{"object":"0x60a060405234801562000010575f80fd5b5060405162001429380380620014298339810160408190526200003391620001d9565b6001600160a01b0383166200005b576040516339bfddb560e01b815260040160405180910390fd5b6001600160a01b038116620000835760405163b50fa7b560e01b815260040160405180910390fd5b6001600160a01b0381166080526200009c5f8462000111565b50620000c97fa49807205ce4d355092ef5a8a18f56e8913cf4a201fbe287825b095693c217758462000111565b506001600160a01b038216156200010857620001067f3b72b77b3d95d9b831cca52b36d7a9c3758f77be6c47ebd087c47739c743d3698362000111565b505b50505062000220565b5f828152602081815260408083206001600160a01b038516845290915281205460ff16620001b4575f838152602081815260408083206001600160a01b03861684529091529020805460ff191660011790556200016b3390565b6001600160a01b0316826001600160a01b0316847f2f8788117e7eff1d82e926ec794901d17c78024a50270940304540a733656f0d60405160405180910390a4506001620001b7565b505f5b92915050565b80516001600160a01b0381168114620001d4575f80fd5b919050565b5f805f60608486031215620001ec575f80fd5b620001f784620001bd565b92506200020760208501620001bd565b91506200021760408501620001bd565b90509250925092565b6080516111e9620002405f395f8181610203015261063101526111e95ff3fe608060405234801561000f575f80fd5b5060043610610111575f3560e01c80638456cb591161009e5780639fbfaa381161006e5780639fbfaa3814610250578063a217fddf14610258578063d383ea821461025f578063d547741f14610272578063f9fdcc3e14610285575f80fd5b80638456cb59146101d65780638831b13e146101de5780638f75315b146101fe57806391d148541461023d575f80fd5b806336568abe116100e457806336568abe1461018a5780633eb4d9491461019d5780633f4ba83a146101b05780633f6b6827146101b85780635c975abb146101cb575f80fd5b806301ffc9a714610115578063248a9ca31461013d578063290d10c41461016d5780632f2ff15d14610175575b5f80fd5b610128610123366004610f40565b610298565b60405190151581526020015b60405180910390f35b61015f61014b366004610f6e565b5f9081526020819052604090206001015490565b604051908152602001610134565b6101286102ce565b610188610183366004610fa0565b6102e0565b005b610188610198366004610fa0565b61030a565b6101886101ab366004610fca565b610342565b6101886104d1565b6101886101c6366004610ff3565b610547565b60015460ff16610128565b610188610938565b6101f16101ec366004610f6e565b6109a8565b604051610134919061103d565b6102257f000000000000000000000000000000000000000000000000000000000000000081565b6040516001600160a01b039091168152602001610134565b61012861024b366004610fa0565b610b1c565b610128610b44565b61015f5f81565b61018861026d366004611135565b610b57565b610188610280366004610fa0565b610cd5565b610128610293366004610f6e565b610cf9565b5f6001600160e01b03198216637965db0b60e01b14806102c857506301ffc9a760e01b6001600160e01b03198316145b92915050565b5f6102db60015460ff1690565b905090565b5f828152602081905260409020600101546102fa81610d28565b6103048383610d35565b50505050565b6001600160a01b03811633146103335760405163334bd91960e11b815260040160405180910390fd5b61033d8282610dc4565b505050565b7f8402634ce5a5a91085ede8b52589965e14e73568464c97d3139da9b436ca7b0e61036c81610d28565b610374610e2d565b5f84815260026020526040812090600b82015460ff16600381111561039b5761039b611009565b036103c15760405163da561c4b60e01b8152600481018690526024015b60405180910390fd5b6001600b82015460ff1660038111156103dc576103dc611009565b146103fd576040516366c34f2760e01b8152600481018690526024016103b8565b600681018054600160401b600160e01b03191633600160401b0217905560078101805467ffffffffffffffff1916426001600160401b0381169190911790915560098201859055600a8201849055600b820180546003919060ff191660018302179055506001820154600283015460408051338152602081018990529081018790526001600160401b03841660608201526001600160a01b039092169188907f6d3c6ecc64ba14c2d2fb16867d93feee82c3164ba2ef6c9eea1ac501eebef2909060800160405180910390a4505050505050565b7fa49807205ce4d355092ef5a8a18f56e8913cf4a201fbe287825b095693c217756104fb81610d28565b610503610e53565b6040516001600160401b034216815233905f907f84bb0b0cc15a47f42a7d18ab632f4f6a855841cdccf8673936b0e4d4ecf17d0e906020015b60405180910390a350565b7f8402634ce5a5a91085ede8b52589965e14e73568464c97d3139da9b436ca7b0e61057181610d28565b610579610e2d565b813561059857604051633c78380360e11b815260040160405180910390fd5b5f6105a96040840160208501611155565b6001600160a01b0316036105d057604051637d01fca960e01b815260040160405180910390fd5b81355f908152600260205260408120600b015460ff1660038111156105f7576105f7611009565b146106185760405163d42086bb60e01b8152823560048201526024016103b8565b6040805163021a0ebb60e31b81529083013560048201527f00000000000000000000000000000000000000000000000000000000000000006001600160a01b0316906310d075d890602401602060405180830381865afa15801561067e573d5f803e3d5ffd5b505050506040513d601f19601f820116820180604052508101906106a2919061116e565b6106c55760408051631aa6a08360e11b81529083013560048201526024016103b8565b604080516101c0810182528335815242916020808301916106eb91908701908701611155565b6001600160a01b031681526020018460400135815260200184606001358152602001846080013581526020018460a001602081019061072a919061118d565b6001600160401b039081168252336020830152831660408201525f606082018190526080820181905260a0820181905260c0820181905260e0820152610100016001905283355f908152600260208181526040928390208451815590840151600180830180546001600160a01b0319166001600160a01b03938416179055938501519282019290925560608401516003808301919091556080850151600483015560a085015160058301805460c08801516001600160401b039384166001600160e01b031992831617600160401b91881682021790925560e08801516006860180546101008b015192861693169290921796169091029490941790935561012085015160078301805467ffffffffffffffff1916919094161790925561014084015160088201556101608401516009820155610180840151600a8201556101a0840151600b8201805492949193909260ff19169190849081111561089057610890611009565b02179055506108a89150506040840160208501611155565b6001600160a01b0316604084013584357fbbaa6e1110035e1f19b78bc95c576a50a768833d8f37e4280683ce52cb1c53fa33606088013560808901356108f460c08b0160a08c0161118d565b604080516001600160a01b0390951685526020850193909352918301526001600160401b0390811660608301528616608082015260a00160405180910390a4505050565b7f3b72b77b3d95d9b831cca52b36d7a9c3758f77be6c47ebd087c47739c743d36961096281610d28565b61096a610ea5565b6040516001600160401b034216815233906001907f84bb0b0cc15a47f42a7d18ab632f4f6a855841cdccf8673936b0e4d4ecf17d0e9060200161053c565b610a1c604080516101c0810182525f80825260208201819052918101829052606081018290526080810182905260a0810182905260c0810182905260e0810182905261010081018290526101208101829052610140810182905261016081018290526101808101829052906101a082015290565b5f8281526002602081815260409283902083516101c0810185528154815260018201546001600160a01b0390811693820193909352928101549383019390935260038084015460608401526004840154608084015260058401546001600160401b0380821660a0860152600160401b91829004841660c0860152600686015480821660e087015291909104909216610100840152600784015490911661012083015260088301546101408301526009830154610160830152600a830154610180830152600b8301549192916101a084019160ff90911690811115610b0257610b02611009565b6003811115610b1357610b13611009565b90525092915050565b5f918252602082815260408084206001600160a01b0393909316845291905290205460ff1690565b5f610b5160015460ff1690565b15905090565b7f8402634ce5a5a91085ede8b52589965e14e73568464c97d3139da9b436ca7b0e610b8181610d28565b610b89610e2d565b5f83815260026020526040812090600b82015460ff166003811115610bb057610bb0611009565b03610bd15760405163da561c4b60e01b8152600481018590526024016103b8565b6001600b82015460ff166003811115610bec57610bec611009565b14610c0d576040516366c34f2760e01b8152600481018590526024016103b8565b600681018054600160401b600160e01b03191633600160401b0217905560078101805467ffffffffffffffff1916426001600160401b0381169190911790915560088201849055600b820180546002919060ff191660018302179055506001820154600283015460408051338152602081018890526001600160401b038516918101919091526001600160a01b039092169187907f15fe8818a9f21bd49051986c886633c0c10ab94f88fe3db7e235cccd14ee81fd9060600160405180910390a45050505050565b5f82815260208190526040902060010154610cef81610d28565b6103048383610dc4565b5f60015f838152600260205260409020600b015460ff166003811115610d2157610d21611009565b1492915050565b610d328133610ee0565b50565b5f610d408383610b1c565b610dbd575f838152602081815260408083206001600160a01b03861684529091529020805460ff19166001179055610d753390565b6001600160a01b0316826001600160a01b0316847f2f8788117e7eff1d82e926ec794901d17c78024a50270940304540a733656f0d60405160405180910390a45060016102c8565b505f6102c8565b5f610dcf8383610b1c565b15610dbd575f838152602081815260408083206001600160a01b0386168085529252808320805460ff1916905551339286917ff6391f5c32d9c69d2a47ea670b442974b53935d1edc7fd64eb21e047a839171b9190a45060016102c8565b60015460ff1615610e515760405163d93c066560e01b815260040160405180910390fd5b565b610e5b610f1d565b6001805460ff191690557f5db9ee0a495bf2e6ff9c91a7834c1ba4fdd244a5e8aa4e537bd38aeae4b073aa335b6040516001600160a01b03909116815260200160405180910390a1565b610ead610e2d565b6001805460ff1916811790557f62e78cea01bee320cd4e420270b5ea74000d11b0c9f74754ebdbfc544b05a25833610e88565b610eea8282610b1c565b610f195760405163e2517d3f60e01b81526001600160a01b0382166004820152602481018390526044016103b8565b5050565b60015460ff16610e5157604051638dfc202b60e01b815260040160405180910390fd5b5f60208284031215610f50575f80fd5b81356001600160e01b031981168114610f67575f80fd5b9392505050565b5f60208284031215610f7e575f80fd5b5035919050565b80356001600160a01b0381168114610f9b575f80fd5b919050565b5f8060408385031215610fb1575f80fd5b82359150610fc160208401610f85565b90509250929050565b5f805f60608486031215610fdc575f80fd5b505081359360208301359350604090920135919050565b5f60c08284031215611003575f80fd5b50919050565b634e487b7160e01b5f52602160045260245ffd5b6004811061103957634e487b7160e01b5f52602160045260245ffd5b9052565b815181526020808301516101c0830191611061908401826001600160a01b03169052565b5060408301516040830152606083015160608301526080830151608083015260a083015161109a60a08401826001600160401b03169052565b5060c08301516110b560c08401826001600160a01b03169052565b5060e08301516110d060e08401826001600160401b03169052565b50610100838101516001600160a01b031690830152610120808401516001600160401b0316908301526101408084015190830152610160808401519083015261018080840151908301526101a08084015161112d8285018261101d565b505092915050565b5f8060408385031215611146575f80fd5b50508035926020909101359150565b5f60208284031215611165575f80fd5b610f6782610f85565b5f6020828403121561117e575f80fd5b81518015158114610f67575f80fd5b5f6020828403121561119d575f80fd5b81356001600160401b0381168114610f67575f80fdfea2646970667358221220c10bf1b010e8e55aa649ab27e09445cd5897897f1e45ab5a0f0b4b1e67d1705664736f6c63430008180033","linkReferences":{}},"methodIdentifiers":{"DEFAULT_ADMIN_ROLE()":"a217fddf","STRATEGY_REGISTRY()":"8f75315b","canSubmitExecutionRequests()":"9fbfaa38","getExecutionReceipt(bytes32)":"8831b13e","getRoleAdmin(bytes32)":"248a9ca3","grantRole(bytes32,address)":"2f2ff15d","hasRole(bytes32,address)":"91d14854","isEmergencyPaused()":"290d10c4","isExecutionSubmitted(bytes32)":"f9fdcc3e","pause()":"8456cb59","paused()":"5c975abb","recordExecutionCompletion(bytes32,bytes32)":"d383ea82","recordExecutionFailure(bytes32,bytes32,bytes32)":"3eb4d949","renounceRole(bytes32,address)":"36568abe","revokeRole(bytes32,address)":"d547741f","submitExecutionRequest((bytes32,address,bytes32,uint256,bytes32,uint64))":"3f6b6827","supportsInterface(bytes4)":"01ffc9a7","unpause()":"3f4ba83a"},"id":6}